:100000000C9446000C9465000C9465000C946500FB
:100010000C9465000C9465000C9465000C946500CC
:100020000C9465000C9465000C9465000C946500BC
:100030000C9465000C9465000C9465000C946500AC
:100040000C9465000C9465000C9465000C9465009C
:100050000C9465000C9465000C9465000C9465008C
:100060000C9465000C9465000C9465000C9465007C
:100070000C9465000C9467000C9465000C9465006A
:100080000C9465000C9465000C94650011241FBE4F
:10009000CFEFD0E1DEBFCDBF11E0A0E0B1E0E2E9FB
:1000A000F1E000E00BBF02C007900D92A431B10750
:1000B000D9F711E0A4E1B1E001C01D92A631B1076A
:1000C000E1F70E94AD000C94C7000C9400001F9251
:1000D0000F920FB60F9211240BB60F928F939F932E
:1000E000EF93FF93809115018F5F809315018A3004
:1000F00059F1809114018823D9F0813071F48091F5
:100100001501E9E0F0E0E81BF109EE0FFF1FE050F8
:10011000FF4F8081918199BD88BDFF91EF919F91A3
:100120008F910F900BBE0F900FBE0F901F901895E0
:10013000E0911501F0E0EE0FFF1FE050FF4F8081CE
:10014000918199BD88BDE9CF10921501909114015C
:1001500081E0891B80931401CECF8FEF87BB8FB5D1
:1001600082638FBD8EB589618EBD10927A0080E06A
:100170009FEB97BD86BD10928B0082E080938A0032
:1001800010928C0084E080937D007894FFCFF894E7
:02019000FFCF9F
:1001920000010016002B00400055006A007F009409
:0401A20000A900BEF2
:00000001FF
