:100000000C9446000C9465000C9465000C946500FB
:100010000C9465000C9465000C9465000C946500CC
:100020000C9465000C9465000C9465000C946500BC
:100030000C9465000C9465000C9465000C946500AC
:100040000C9465000C9465000C9465000C9465009C
:100050000C9465000C9465000C9465000C9465008C
:100060000C9465000C9465000C9465000C9465007C
:100070000C9465000C9465000C9465000C9465006C
:100080000C9465000C9465000C94650011241FBE4F
:10009000CFEFD0E1DEBFCDBF11E0A0E0B1E0E6E2FE
:1000A000FCE000E00BBF02C007900D92A837B1073B
:1000B000D9F711E0A8E7B1E001C01D92A838B10757
:1000C000E1F70E9426040C9411060C940000E2E66D
:1000D000F0E08081886080838081877F80830895BD
:1000E0001FB8779BFECF81E08FB9779BFECF8091C1
:1000F000620088608093620080916200877F8093B5
:1001000062008FE891E00197F1F700C000008FE3F3
:100110009FE10197F1F700C0000008951FB8779B99
:10012000FECF80E88FB9779BFECF80916200886018
:100130008093620080916200877F809362008FE8E5
:1001400091E00197F1F700C0000008951FB8779B78
:10015000FECF80EC8FB9779BFECF809162008860E4
:100160008093620080916200877F809362008FE8B5
:1001700091E00197F1F700C0000008951FB8779B48
:10018000FECF8FE08FB9779BFECF809162008860B1
:100190008093620080916200877F809362008FE885
:1001A00091E00197F1F700C0000008951FB8779B18
:1001B000FECF8CE08FB9779BFECF80916200886084
:1001C0008093620080916200877F809362008FE855
:1001D00091E00197F1F700C000000895603120F42C
:1001E000813019F08230C9F0089560581FB8779BAC
:1001F000FECF6FB9779BFECF8091620088608093BD
:10020000620080916200877F809362008FE891E0B6
:100210000197F1F700C0000008956054E7CF20E196
:1002200030E041E090E24FB9779BFECF9FB9779BDA
:10023000FECF8091620088608093620080916200AE
:10024000877F80936200EFE8F1E03197F1F700C01B
:1002500000002150310939F70895843608F45BC055
:100260009CE9980F943608F459C0885C22E391E029
:100270009FB9779BFECF2FB9779BFECF90916200FD
:1002800098609093620090916200977F90936200D3
:10029000EFE8F1E03197F1F700C000008A3008F490
:1002A00040C090E09F5F8A508A30E0F721E02FB98C
:1002B000779BFECF905D9FB9779BFECF90916200B8
:1002C00098609093620090916200977F9093620093
:1002D000EFE8F1E03197F1F700C000008823C9F0A2
:1002E000805D91E09FB9779BFECF8FB9779BFECF62
:1002F0008091620088608093620080916200877FB5
:10030000809362008FE891E00197F1F700C0000050
:10031000089580E3E6CF8A3020F6E0CF892F21E3ED
:10032000A6CF90E0C3CF803127E2920708F4A5C0A2
:1003300020E02F5F80519742803137E29307C8F762
:1003400031E03FB9779BFECF205D2FB9779BFECF81
:100350002091620028602093620020916200277F34
:1003600020936200EFE8F1E03197F1F700C0000060
:10037000883EF3E09F0708F494C020E02F5F885E7A
:100380009340883E33E09307C8F731E03FB9779B4D
:10039000FECF205D2FB9779BFECF209162002860B1
:1003A0002093620020916200277F20936200EFE893
:1003B000F1E03197F1F700C000008436910508F4B0
:1003C0006CC020E02F5F8456910984369105D0F7E8
:1003D00031E03FB9779BFECF205D2FB9779BFECFF1
:1003E0002091620028602093620020916200277FA4
:1003F00020936200EFE8F1E03197F1F700C00000D0
:100400008A30910508F447C020E02F5F0A978A30B0
:100410009105D8F731E03FB9779BFECF205D2FB92A
:10042000779BFECF2091620028602093620020918C
:100430006200277F20936200EFE8F1E03197F1F747
:1004400000C00000009759F1805D91E09FB9779B53
:10045000FECF8FB9779BFECF80916200886080933A
:10046000620080916200877F809362008FE891E054
:100470000197F1F700C000000895883E23E092073D
:1004800008F07BCF8436910508F09BCF8A30910528
:1004900008F0BACFD7CF20E0BDCF20E099CF80E3DE
:1004A000D4CF20E072CF91E09FB9779BFECF8FB978
:1004B000779BFECF8091620088608093620080917C
:1004C0006200877F809362008FE891E00197F1F7E7
:1004D00000C000000895FC0140E050E060E071E0E1
:1004E0007FB9779BFECFDF01A40FB51F8C918FB929
:1004F000779BFECF909162009860909362009091FC
:100500006200977F909362008FE891E00197F1F786
:1005100000C000006F5F462F50E0DF010D9000200B
:10052000E9F79D012E1B3F0B225031092417350797
:10053000B8F60895E1E6F0E080818860808388B3B2
:1005400088BB87B3876087BB80E58DB981E08EB9B2
:10055000089580E885BF92E490936D0080936C00CD
:100560008091610088608093610088B388BB87B305
:10057000876087BB80E58DB981E08EB9809161008D
:100580008860809361008FE59AEE0197F1F700C0D3
:1005900000001FB8779BFECF88E38FB9779BFECF13
:1005A0008091620088608093620080916200877F02
:1005B000809362008FE891E00197F1F700C000009E
:1005C0008FE19EE40197F1F700C000001FB8779B10
:1005D000FECF88E08FB9779BFECF80916200886064
:1005E0008093620080916200877F809362008FE831
:1005F00091E00197F1F700C000008FE39FE10197C0
:10060000F1F700C000001FB8779BFECF86E08FB9DE
:10061000779BFECF8091620088608093620080911A
:100620006200877F809362008FE891E00197F1F785
:1006300000C000001FB8779BFECF80E48FB9779B86
:10064000FECF80916200886080936200809162009A
:10065000877F809362008FE891E00197F1F700C0F7
:10066000000081E08FB9779BFECF8EE08FB9779B3A
:10067000FECF80916200886080936200809162006A
:10068000877F809362008FE891E00197F1F700C0C7
:10069000000081E08FB9779BFECF8BE18FB9779B0C
:1006A000FECF80916200886080936200809162003A
:1006B000877F809362008FE891E00197F1F700C097
:1006C000000081E08FB9779BFECF81E18FB9779BE6
:1006D000FECF80916200886080936200809162000A
:1006E000877F809362008FE891E00197F1F700C067
:1006F000000081E08FB9779BFECF81E18FB9779BB6
:10070000FECF8091620088608093620080916200D9
:10071000877F809362008FE891E00197F1F700C036
:10072000000081E08FB9779BFECF81E18FB9779B85
:10073000FECF8091620088608093620080916200A9
:10074000877F809362008FE891E00197F1F700C006
:10075000000081E08FB9779BFECF81E18FB9779B55
:10076000FECF809162008860809362008091620079
:10077000877F809362008FE891E00197F1F700C0D6
:10078000000081E08FB9779BFECF81E18FB9779B25
:10079000FECF809162008860809362008091620049
:1007A000877F809362008FE891E00197F1F700C0A6
:1007B000000081E08FB9779BFECF8FE18FB9779BE7
:1007C000FECF809162008860809362008091620019
:1007D000877F809362008FE891E00197F1F700C076
:1007E00000001FB8779BFECF81E08FB9779BFECFCB
:1007F0008091620088608093620080916200877FB0
:10080000809362008FE891E00197F1F700C000004B
:100810008FE19EE40197F1F700C000001FB8779BBD
:10082000FECF8CE08FB9779BFECF8091620088600D
:100830008093620080916200877F809362008FE8DE
:1008400091E00197F1F700C000000895CF93DF9386
:1008500000D000D0CDB7DEB78FEF87BB18BA11BA82
:1008600080E090E0812C912C04E410E044E0A42E80
:10087000BB24BA945DE7C52ED12CE12CF12C81303C
:10088000910509F45DC08130910508F4AAC0823059
:10089000910509F485C08330910589F718BAC40120
:1008A000A0E0B0E0880F991FAA1FBB1F880F991FF7
:1008B000AA1FBB1FBC01CD01660F771F881F991FA0
:1008C000A70196010E94400529833A834B835C83EC
:1008D0000E94A90229813A814B815C8106B602FC03
:1008E00006C0211531054105510509F4A1C006B620
:1008F00002FC93C089E491E029833A834B835C83B3
:100900000E946B020E94A60029813A81C9010E94BF
:10091000930184E591E00E946B021DB82FEF85EAF8
:100920009EE0215080409040E1F700C0000080B37D
:100930008F3FE9F381E090E08130910509F0A3CF8A
:100940000E94A90282E191E00E946B020E94A6002F
:1009500083E291E00E946B021DB883B7876B83BF6F
:1009600087B7836087BF86B7816086BF83B787609C
:1009700083BF0E94C105B8010E942C05AB014658F7
:100980005F4F06B600FEFDCF86B7816086BF41503F
:100990005109B9F783B7886F83BF82E090E06FCFCA
:1009A0008EB5876E8EBD8EB5886F8EBD1FBC87B726
:1009B00087BF10927D00A6BE1DBC1CBC8EB5856095
:1009C0008EBDB8BA03C080B38F3F19F406B602FEDD
:1009D000FACF8CB49DB48EB5887F8EBD83E090E055
:1009E0004ECF0E94A90284E091E00E946B020E9417
:1009F000A60082E191E00E946B021DB82FEF81EE0C
:100A000094E0215080409040E1F700C0000080B3A6
:100A10008F3FE9F381E090E08FCF88E591E00E947D
:100A20006B020E94A60087E691E00E946B0275CFE0
:100A300084E391E00E946B020E94A60082E491E0B0
:100A40000E946B022FEF83ED90E321508040904095
:100A5000E1F700C0000061CF97FB072E16F4009469
:100A600007D077FD09D00E94620507FC05D03EF44F
:100A7000909581959F4F0895709561957F4F08954A
:100A8000A1E21A2EAA1BBB1BFD010DC0AA1FBB1F92
:100A9000EE1FFF1FA217B307E407F50720F0A21B04
:100AA000B30BE40BF50B661F771F881F991F1A9471
:100AB00069F760957095809590959B01AC01BD019B
:100AC000CF010895AA1BBB1B51E107C0AA1FBB1F82
:100AD000A617B70710F0A61BB70B881F991F5A95CA
:100AE000A9F780959095BC01CD0108958F929F92B2
:100AF000AF92BF92CF92DF92EF92FF92CF93DF93AC
:100B0000EC01688179818A819B816115710581057C
:100B1000910521F464E279ED8BE597E02DE133EF67
:100B200041E050E00E94E30549015A019B01AC01FC
:100B3000A7EAB1E40E94D0056B017C01ACEEB4EFF2
:100B4000A50194010E94DE05DC01CB018C0D9D1DE9
:100B5000AE1DBF1DB7FF03C00197A109B048888330
:100B60009983AA83BB839F77DF91CF91FF90EF900A
:100B7000DF90CF90BF90AF909F908F9008950C948E
:100B8000760580E091E00C947605A0E0B0E08093DB
:100B9000000190930101A0930201B0930301089515
:100BA0000E940206A59F900DB49F900DA49F800DFA
:100BB000911D11240895B7FF0C94D0050E94D00513
:100BC000821B930B0895052E97FB1EF400940E9440
:100BD000FA0557FD07D00E94400507FC03D04EF4EC
:100BE0000C94FA0550954095309521953F4F4F4F05
:100BF0005F4F089590958095709561957F4F8F4FC9
:100C00009F4F0895A29FB001B39FC001A39F700D95
:100C1000811D1124911DB29F700D811D1124911D04
:060C20000895F894FFCFD7
:100C2600010000005245464C455820544553544552
:100C36005200507265737320616E79206275747408
:100C46006F6E006166746572204C454473206C6952
:100C5600676874004E6F206368656174696E67210A
:100C6600210052657472793F00596F75722074695C
:100C76006D653A00206D730054696D657220657864
:100C860070697265642E0050726573732062746EAB
:080C960020746F2072737400DA
:00000001FF
