:100000000C9446000C9458000C9458000C94580022
:100010000C9458000C9458000C9458000C94580000
:100020000C9458000C9458000C9458000C945800F0
:100030000C945A000C9458000C9458000C945800DE
:100040000C9458000C9458000C9458000C945800D0
:100050000C9458000C9458000C9458000C945800C0
:100060000C9458000C9458000C9458000C945800B0
:100070000C9458000C9458000C9458000C945800A0
:100080000C9458000C9458000C94580011241FBE76
:10009000CFEFD0E1DEBFCDBF11E0A0E0B1E001C005
:1000A0001D92A031B107E1F70E9428040C94390495
:1000B0000C9400001F920F920FB60F9211248F9391
:1000C00082B3805882BB8F910F900FBE0F901F900C
:1000D0001895E2E6F0E08081886080838081877FE8
:1000E000808308951FB8779BFECF81E08FB9779BFF
:1000F000FECF8091620088608093620080916200F0
:10010000877F809362008FE891E00197F1F700C04C
:1001100000008FE39FE10197F1F700C00000089510
:100120001FB8779BFECF80E88FB9779BFECF809179
:10013000620088608093620080916200877F809374
:1001400062008FE891E00197F1F700C00000089588
:100150001FB8779BFECF80EC8FB9779BFECF809145
:10016000620088608093620080916200877F809344
:1001700062008FE891E00197F1F700C00000089558
:100180001FB8779BFECF8FE08FB9779BFECF809112
:10019000620088608093620080916200877F809314
:1001A00062008FE891E00197F1F700C00000089528
:1001B0001FB8779BFECF8CE08FB9779BFECF8091E5
:1001C000620088608093620080916200877F8093E4
:1001D00062008FE891E00197F1F700C000000895F8
:1001E000603120F4813019F08230C9F008956058F0
:1001F0001FB8779BFECF6FB9779BFECF80916200CF
:1002000088608093620080916200877F80936200A3
:100210008FE891E00197F1F700C000000895605465
:10022000E7CF20E130E041E090E24FB9779BFECF8D
:100230009FB9779BFECF80916200886080936200B7
:1002400080916200877F80936200EFE8F1E0319750
:10025000F1F700C000002150310939F708958436C4
:1002600008F45BC09CE9980F943608F459C0885C88
:1002700022E391E09FB9779BFECF2FB9779BFECF0A
:100280009091620098609093620090916200977FD5
:1002900090936200EFE8F1E03197F1F700C00000C1
:1002A0008A3008F440C090E09F5F8A508A30E0F7BF
:1002B00021E02FB9779BFECF905D9FB9779BFECF52
:1002C0009091620098609093620090916200977F95
:1002D00090936200EFE8F1E03197F1F700C0000081
:1002E0008823C9F0805D91E09FB9779BFECF8FB9DD
:1002F000779BFECF8091620088608093620080913E
:100300006200877F809362008FE891E00197F1F7A8
:1003100000C00000089580E3E6CF8A3020F6E0CFE9
:10032000892F21E3A6CF90E0C3CF803127E2920747
:1003300008F4A5C020E02F5F80519742803137E25A
:100340009307C8F731E03FB9779BFECF205D2FB907
:10035000779BFECF2091620028602093620020915D
:100360006200277F20936200EFE8F1E03197F1F718
:1003700000C00000883EF3E09F0708F494C020E02E
:100380002F5F885E9340883E33E09307C8F731E0E3
:100390003FB9779BFECF205D2FB9779BFECF209191
:1003A000620028602093620020916200277F2093E2
:1003B0006200EFE8F1E03197F1F700C00000843609
:1003C000910508F46CC020E02F5F845691098436B3
:1003D0009105D0F731E03FB9779BFECF205D2FB973
:1003E000779BFECF209162002860209362002091CD
:1003F0006200277F20936200EFE8F1E03197F1F788
:1004000000C000008A30910508F447C020E02F5F4B
:100410000A978A309105D8F731E03FB9779BFECF34
:10042000205D2FB9779BFECF20916200286020933A
:10043000620020916200277F20936200EFE8F1E0E4
:100440003197F1F700C00000009759F1805D91E00D
:100450009FB9779BFECF8FB9779BFECF80916200CB
:1004600088608093620080916200877F8093620041
:100470008FE891E00197F1F700C000000895883EF1
:1004800023E0920708F07BCF8436910508F09BCFDC
:100490008A30910508F0BACFD7CF20E0BDCF20E059
:1004A00099CF80E3D4CF20E072CF91E09FB9779BC2
:1004B000FECF8FB9779BFECF8091620088608093DA
:1004C000620080916200877F809362008FE891E0F4
:1004D0000197F1F700C000000895FC0140E050E0F2
:1004E00060E071E07FB9779BFECFDF01A40FB51FFD
:1004F0008C918FB9779BFECF90916200986090931A
:10050000620090916200977F909362008FE891E083
:100510000197F1F700C000006F5F462F50E0DF0148
:100520000D900020E9F79D012E1B3F0B2250310951
:1005300024173507B8F60895E1E6F0E08081886079
:10054000808388B388BB87B3876087BB80E58DB91C
:1005500081E08EB9089580E885BF92E490936D00A4
:1005600080936C008091610088608093610088B303
:1005700088BB87B3876087BB80E58DB981E08EB982
:10058000809161008860809361008FE59AEE019709
:10059000F1F700C000001FB8779BFECF88E38FB94A
:1005A000779BFECF8091620088608093620080918B
:1005B0006200877F809362008FE891E00197F1F7F6
:1005C00000C000008FE19EE40197F1F700C0000039
:1005D0001FB8779BFECF88E08FB9779BFECF8091C5
:1005E000620088608093620080916200877F8093C0
:1005F00062008FE891E00197F1F700C000008FE3FF
:100600009FE10197F1F700C000001FB8779BFECF74
:1006100086E08FB9779BFECF8091620088608093DF
:10062000620080916200877F809362008FE891E092
:100630000197F1F700C000001FB8779BFECF80E460
:100640008FB9779BFECF80916200886080936200B3
:1006500080916200877F809362008FE891E001972C
:10066000F1F700C0000081E08FB9779BFECF8EE0EC
:100670008FB9779BFECF8091620088608093620083
:1006800080916200877F809362008FE891E00197FC
:10069000F1F700C0000081E08FB9779BFECF8BE1BE
:1006A0008FB9779BFECF8091620088608093620053
:1006B00080916200877F809362008FE891E00197CC
:1006C000F1F700C0000081E08FB9779BFECF81E198
:1006D0008FB9779BFECF8091620088608093620023
:1006E00080916200877F809362008FE891E001979C
:1006F000F1F700C0000081E08FB9779BFECF81E168
:100700008FB9779BFECF80916200886080936200F2
:1007100080916200877F809362008FE891E001976B
:10072000F1F700C0000081E08FB9779BFECF81E137
:100730008FB9779BFECF80916200886080936200C2
:1007400080916200877F809362008FE891E001973B
:10075000F1F700C0000081E08FB9779BFECF81E107
:100760008FB9779BFECF8091620088608093620092
:1007700080916200877F809362008FE891E001970B
:10078000F1F700C0000081E08FB9779BFECF81E1D7
:100790008FB9779BFECF8091620088608093620062
:1007A00080916200877F809362008FE891E00197DB
:1007B000F1F700C0000081E08FB9779BFECF8FE199
:1007C0008FB9779BFECF8091620088608093620032
:1007D00080916200877F809362008FE891E00197AB
:1007E000F1F700C000001FB8779BFECF81E08FB902
:1007F000779BFECF80916200886080936200809139
:100800006200877F809362008FE891E00197F1F7A3
:1008100000C000008FE19EE40197F1F700C00000E6
:100820001FB8779BFECF8CE08FB9779BFECF80916E
:10083000620088608093620080916200877F80936D
:1008400062008FE891E00197F1F700C00000089581
:1008500080E287BB80EF81BB87B7806187BF1FBC09
:100860008EB588608EBD83E390E09BBD8ABD789491
:060870000895F894FFCF8B
:00000001FF
