:100000000C9446000C9465000C9465000C946500FB
:100010000C9465000C9465000C9465000C946500CC
:100020000C9465000C9465000C9465000C946500BC
:100030000C9465000C9465000C9465000C946500AC
:100040000C9465000C9465000C9465000C9465009C
:100050000C9465000C9465000C9465000C9465008C
:100060000C9465000C9465000C9465000C9465007C
:100070000C9465000C9465000C9465000C9465006C
:100080000C9465000C9465000C94650011241FBE4F
:10009000CFEFD0E1DEBFCDBF11E0A0E0B1E0E2EAFA
:1000A000F1E000E00BBF02C007900D92A030B10755
:1000B000D9F711E0A0E0B1E001C01D92A230B10774
:1000C000E1F70E9481000C94CF000C94000029B34A
:1000D0008091000190910101880F991F906E30E08E
:1000E00021703070822B932B90930101809300013B
:1000F00020E08050904F11F0822F089521E0822F50
:1001000008950F931F93CF93DF938FEF87BBC0E0CA
:10011000D0E000E41FE10E9467008823A9F0CE012F
:10012000019664E670E00E94A800EC016AE070E0CD
:100130000E94A800262F2295207FCE016AE070E061
:100140000E94A800280F28BBC8010197F1F7E3CF50
:1001500097FB092E07260AD077FD04D00CD006D0D5
:1001600000201AF4709561957F4F0895F6F79095E9
:1001700081959F4F0895AA1BBB1B51E107C0AA1F81
:10018000BB1FA617B70710F0A61BB70B881F991F38
:100190005A95A9F780959095BC01CD010895F894E2
:0201A000FFCF8F
:00000001FF
