:100000000C9446000C9465000C9465000C946500FB
:100010000C9465000C9465000C9465000C946500CC
:100020000C94CF100C9465000C94D1070C946500CF
:100030000C9461070C9465000C9465000C946500A9
:100040000C9408070C9465000C9465000C946500F2
:100050000C9465000C94EA060C9465000C94650001
:100060000C9465000C9465000C9465000C9465007C
:100070000C9465000C9465000C9465000C9465006C
:100080000C9465000C94EB0F0C94650011241FBEBA
:10009000CFEFD0E1DEBFCDBF11E0A0E0B1E0E8E8F6
:1000A000FDE200E00BBF02C007900D92AE36B10733
:1000B000D9F712E0AEE6B1E001C01D92AC30B10755
:1000C000E1F70E94F30A0C94C2160C9400001092FF
:1000D0008C0110928B0110928E0110928D01109262
:1000E0009601089510928C0110928B0130E03093AC
:1000F0008E0120938D01443009F4D0C0453078F052
:10010000463009F487C0463008F43FC0473009F450
:100110006AC0483009F450C01BBC1ABC0895413075
:1001200009F4A6C04130B0F4843409F428C28534FF
:100130000CF41FC1863409F470C186340CF465C117
:10014000873461F7662309F48EC28DE195E19BBD8A
:100150008ABD0895423009F474C04330E9F684340E
:1001600009F4EDC185340CF426C1863409F45AC172
:1001700086340CF442C1873489F6662309F409C336
:1001800082EA92E09BBD8ABD0895843409F471C16E
:1001900085340CF421C1863409F435C286340CF45C
:1001A000FEC1873409F0BACF662309F461C287EA39
:1001B00090E09BBD8ABD0895843409F445C185341F
:1001C0000CF4E8C0863409F43AC186340CF42FC12B
:1001D000873409F0A3CF662309F417C380E190E0C8
:1001E0009BBD8ABD0895843409F46AC185340CF43A
:1001F000AFC0863409F426C286340CF4C8C18734F3
:1002000009F08CCF662309F483C289E290E09BBD9C
:100210008ABD0895843409F4A2C185340CF487C0E2
:10022000863409F4F5C186340CF4E0C1873409F052
:1002300075CF662309F47BC283E590E09BBD8ABD40
:100240000895843409F483C185340CF45FC0863486
:1002500009F431C186340CF426C1873409F05ECF2D
:10026000662309F428C286E495E09BBD8ABD089503
:10027000843409F45CC18534C4F1863409F4A4C122
:1002800086340CF499C1873409F048CF662309F409
:10029000FEC18DE89AE09BBD8ABD0895843409F4BF
:1002A00066C185348CF0863409F434C186340CF48C
:1002B00029C1873409F032CF662309F424C280E5CE
:1002C00091E09BBD8ABD0895823409F4ABC18334AB
:1002D0000CF0A3C1813409F021CF662309F431C2A7
:1002E0008BE291E09BBD8ABD0895823409F4A2C1DE
:1002F00083340CF05CC1813409F010CF662309F41B
:100300002AC287E699E09BBD8ABD0895823409F42C
:100310009EC183340CF072C1813409F0FFCE662394
:1003200009F4E7C182EB94E09BBD8ABD0895823455
:1003300009F4DBC083340CF0B1C0813409F0EECE97
:10034000662309F4BDC18AE490E09BBD8ABD08958F
:10035000823409F4C2C083340CF0BAC0813409F08D
:10036000DDCE662309F41FC284E290E09BBD8ABD06
:100370000895823409F4D3C083340CF0BEC08134B4
:1003800009F0CCCE662309F409C28EEC92E19BBD44
:100390008ABD0895823409F464C083340CF05CC0D3
:1003A000813409F0BBCE662309F411C28BE090E0E2
:1003B0009BBD8ABD0895823409F410C183340CF0CA
:1003C00008C1813409F0AACE662309F46AC188E520
:1003D00092E09BBD8ABD0895823409F457C08334EE
:1003E0000CF04FC0813409F099CE662309F4F9C1AD
:1003F00085E990E09BBD8ABD0895662309F4FBC1A1
:1004000082E293E09BBD8ABD0895662309F4F8C19A
:1004100089E199E19BBD8ABD08958DE596E19BBD7B
:100420008ABD08958AEC92E09BBD8ABD089566233B
:1004300009F4F0C188E190E09BBD8ABD089582E196
:1004400090E09BBD8ABD0895662309F4C5C18BE188
:1004500090E09BBD8ABD08958CE190E09BBD8ABD74
:100460000895662309F4C2C187E090E09BBD8ABD70
:100470000895662309F4A1C180EE90E09BBD8ABD7A
:1004800008958DEE90E09BBD8ABD0895662309F422
:100490001CC185E890E09BBD8ABD089586E790E089
:1004A0009BBD8ABD0895662309F48CC186E496E05D
:1004B0009BBD8ABD089586E995E09BBD8ABD0895E0
:1004C000662309F475C187E390E09BBD8ABD08955A
:1004D0008AE390E09BBD8ABD0895662309F4FAC0C3
:1004E00080E290E09BBD8ABD0895662309F44CC16B
:1004F00082E490E09BBD8ABD08958CED9DE19BBD9B
:100500008ABD0895662309F43AC180E991E09BBD54
:100510008ABD089584E691E09BBD8ABD0895662357
:1005200009F41EC180EC90E19BBD8ABD089566234D
:1005300009F4B2C086E19EE09BBD8ABD08956623A2
:1005400009F4DCC084E893E09BBD8ABD089566236E
:1005500009F4F2C08AE097E09BBD8ABD0895662346
:1005600009F4F4C08FE690E09BBD8ABD0895662330
:1005700009F49CC081EC91E09BBD8ABD089566237F
:1005800009F4CBC080E39CE19BBD8ABD089566233E
:1005900009F473C081E390E09BBD8ABD0895662392
:1005A00009F4E3C087EC90E09BBD8ABD08958DEE11
:1005B0009EE09BBD8ABD0895662309F44FC08DE877
:1005C0009CE09BBD8ABD08958EE29BE09BBD8ABDE9
:1005D00008958AEB93E09BBD8ABD0895662309F4D4
:1005E0007EC087E192E09BBD8ABD0895662309F431
:1005F0007BC083E690E09BBD8ABD089586E797E0C7
:100600009BBD8ABD089581EB90E09BBD8ABD089596
:1006100088E590E09BBD8ABD08958CED91E09BBD7F
:100620008ABD0895662309F4A5C08BE091E09BBDC7
:100630008ABD0895662309F475C080E698E09BBDE5
:100640008ABD08958BE290E09BBD8ABD0895662324
:10065000C9F08FE294E09BBD8ABD089588ED9BE0D0
:100660009BBD8ABD08958DEE93E19BBD8ABD089523
:100670008EE990E09BBD8ABD08958EE290E09BBD1F
:100680008ABD089583EF93E09BBD8ABD089586EFF0
:1006900099E09BBD8ABD08958CE49DE09BBD8ABD19
:1006A000089587E392E09BBD8ABD089588EA91E0B2
:1006B0009BBD8ABD08958AEF94E09BBD8ABD0895D5
:1006C00086E490E09BBD8ABD08958DE790E09BBDD8
:1006D0008ABD08958EE190E09BBD8ABD089589EFA3
:1006E00091E09BBD8ABD08958DE590E09BBD8ABDDC
:1006F00008958FE694E09BBD8ABD089582E593E05E
:100700009BBD8ABD08958DE391E09BBD8ABD089590
:1007100086E290E09BBD8ABD08958AE99AE19BBD7F
:100720008ABD089587EE97E09BBD8ABD08958EE44B
:1007300090E09BBD8ABD089585EA96E09BBD8ABD89
:1007400008958BE191E09BBD8ABD089589E690E014
:100750009BBD8ABD08958FED98E09BBD8ABD08952D
:1007600080ED9FE09BBD8ABD08958CEB90E09BBD22
:100770008ABD08958CEF90E09BBD8ABD08958AE7FD
:1007800091E09BBD8ABD08958EE390E09BBD8ABD3C
:1007900008958CE792E09BBD8ABD089580EC91E1BD
:1007A0009BBD8ABD089582E290E09BBD8ABD0895FD
:1007B00084E390E09BBD8ABD089583ED90E09BBDEE
:1007C0008ABD08958BEE95E09BBD8ABD089589E0B2
:1007D00090E09BBD8ABD089589E190E09BBD8ABDF4
:1007E00008958DE890E09BBD8ABD089585E090E076
:1007F0009BBD8ABD089585EF92E09BBD8ABD08959B
:1008000082EB97E19BBD8ABD08958DE090E09BBD92
:100810008ABD089585E190E09BBD8ABD0895E1E61B
:10082000F0E080818E7F80831092620080E687B93D
:100830008FEE86B9089549B32091940130919501C6
:10084000220F331F306E50E002C0559547958A95B0
:10085000E2F781E090E040FF02C080E090E0282BCA
:10086000392B309395012093940181E090EF203053
:10087000390709F080E008950F931F93FC018091E0
:10088000BA019091BB018F779093BB018093BA011D
:100890002AE030E0CF01B9010E94C3128093BC016D
:1008A000CB01B9010E94C312182F8093BD014AE009
:1008B0004093BE01CF0164E670E00E94C312CB01F9
:1008C000B9010E94C312082F8093BF01CF0168EEC7
:1008D00073E00E94C312CB01B9010E94C31280933E
:1008E000C001009751F44093C001002331F44093BC
:1008F000BF01112311F44093BD0188B38078806556
:1009000088BB1F910F9108958091BA019091BB010E
:1009100080689093BB018093BA012091A10130912E
:10092000A2012438310509F440C084FF1BC0809126
:1009300074018D3070F5882309F063C081E08093E5
:10094000C00182E08093BF01809175016AE00E943E
:10095000B7128093BD019093BC0188B38078806505
:1009600088BB0895809174012AE0622F0E94B7121B
:100970008093C0019093BF01809175010E94B712CE
:100980008093BD019093BC0188B38078806588BB5B
:10099000089590E00C976AE070E00E94D712645FBF
:1009A0006093C0018093BF01CFCF84FF17C08091B7
:1009B00079018D3080F5882309F040C081E0809373
:1009C000C00182E08093BF0180917A016AE00E94B9
:1009D000B7128093BD019093BC01D6CF809179016D
:1009E0002AE0622F0E94B7128093C0019093BF014A
:1009F00080917A010E94B7128093BD019093BC014F
:100A0000C3CF8C30A1F06AE00E94B7128093C0017E
:100A10009093BF0199CF90E00C976AE070E00E943C
:100A2000D712645F6093C0018093BF01CDCF8DE08A
:100A30008093C00182E08093BF0186CF8C3041F06B
:100A40006AE00E94B7128093C0019093BF01BCCFAF
:100A50008DE08093C00182E08093BF01B5CF87B362
:100A6000876087BB8DB180658DB9709A089587B70F
:100A7000816087BF83B7856083BF0895A29A87B7D7
:100A8000806187BF8DE08EBD8FEF9FEF9BBD8ABDDC
:100A90000895BF9A87B7806487BF89E785BD8FEFC8
:100AA00083BD0895139A82EC80938B0089E1809333
:100AB0008A0084E690E090938100809380008AE52C
:100AC00090E09093870080938600089590E0AC01B9
:100AD000440F551F23E030E0042E02C0220F331FC5
:100AE0000A94E2F770E02623372302C03595279554
:100AF0004A95E2F7DC01A057BE4FEC91EE0FEE0FE6
:100B0000E22BF0E0E95AFE4F30813130E9F032302B
:100B100029F0233059F080E02C930895FC01EE5623
:100B2000FE4F3081315030832330A9F7FC01EE565F
:100B3000FE4F8081982F9250923668F0813970F084
:100B400082E010822C930895FC01EE56FE4F308116
:100B50003F5F3083DECF81E01082F4CF80E01082EF
:100B6000F1CFCF93DF9380E96DEA71E042E00E941C
:100B7000951080E49FE10197F1F79091AD0180E03D
:100B80002091AE01C22FD0E0C82BD92B8091BA01A1
:100B900081FF6BC0CE01880F991F880F991F880FA6
:100BA000991F8C0F9D1F80569F4F65E070E00E943B
:100BB000C312EB0146E450E0D7FD5BC0ADB7BEB752
:100BC0001C970FB6F894BEBF0FBEADBFEDB7FEB712
:100BD000319683EA91E012969C938E93119789E067
:100BE00090E0938382838CE091E095838483CE01AF
:100BF000880F892F881F990B9195978386839E0173
:100C000020763070C901880F991F820F931F880FBB
:100C1000991F880F991F880F991F820F931F969510
:100C20008795929582958F7089279F7089279187E4
:100C30008087538742870E9448138DB79EB70C96D2
:100C40000FB6F8949EBF0FBE8DBF8091BA019091F0
:100C5000BB0190FD07C0209729F091609093BB01E4
:100C60008093BA01DF91CF91089543E450E0D7FF1C
:100C7000A5CF8DB79EB70C970FB6F8949EBF0FBE49
:100C80008DBFEDB7FEB7319683EA91E0ADB7BEB741
:100C900012969C938E93119789E090E093838283C0
:100CA00080E091E0A2CFCF93DF938091BA0181FFE2
:100CB0006FC086E40E94B8100E94BF1090E0D82F49
:100CC000CC270E94BF10682F70E06C2B7D2B809189
:100CD000BA0181FF61C0CB01880F991F880F991F4E
:100CE000880F991F860F971F80569F4F65E070E011
:100CF0000E94C31226E430E077FD52C0ADB7BEB704
:100D00001C970FB6F894BEBF0FBEADBFEDB7FEB7D0
:100D1000319681EB91E012969C938E93119789E026
:100D200090E09383828385E291E095838483CB0175
:100D3000880F892F881F990B919502979783868337
:100D400060767070CB01880F991F860F971F880FF0
:100D5000991F880F991F880F991F860F971F9695C7
:100D60008795929582958F7089279F7089279187A3
:100D70008087338722870E9448138DB79EB70C96D1
:100D80000FB6F8949EBF0FBE8DBFDF91CF9108952F
:100D900083E40E94B81090CF23E430E077FFAECF19
:100DA0008DB79EB70C970FB6F8949EBF0FBE8DBF40
:100DB000EDB7FEB7319681EB91E0ADB7BEB71296B5
:100DC0009C938E93119789E090E09383828388E1CE
:100DD00091E0ABCF1F920F920FB60F9211248F9319
:100DE0009F9385B1843658F495B184E6891B83BD01
:100DF0009F918F910F900FBE0F901F90189581E0DB
:100E000083BD9F918F910F900FBE0F901F901895EB
:100E10001F920F920FB60F9211242F938F939F93CF
:100E20008091770190917801019690937801809359
:100E30007701853F9105E9F121E0893E9207C1F0F4
:100E400080918F018F5F80938F01877049F480912B
:100E50008B0190918C01019690938C0180938B0172
:100E60009F918F912F910F900FBE0F901F9018950B
:100E70008091C1018F5F8093C101809176018F5F66
:100E80008093760110927801109277018091BA01D7
:100E90009091BB0187FF07C02091BE012A3079F0F5
:100EA0002AE02093BE0181609093BB018093BA0138
:100EB000C7CF8091C1018F5F8093C101C1CF2BE06B
:100EC000F0CF1F920F920FB60F920BB60F92112414
:100ED000EF92FF920F931F932F933F934F935F9344
:100EE0006F937F938F939F93AF93BF93CF93DF9332
:100EF000EF93FF938091BA0185FF0FC085B394E013
:100F0000892785BB20918B0130918C0180918D01C7
:100F100090918E0128173907C8F4FF91EF91DF9166
:100F2000CF91BF91AF919F918F917F916F915F9181
:100F30004F913F912F911F910F91FF90EF900F9044
:100F40000BBE0F900FBE0F901F9018950E94381384
:100F50008C010E943813EC010E9438137C010E941E
:100F600038139C01C80167E070E00E94D712E82F97
:100F7000CE0162E070E00E94D712F82FC70163E053
:100F800070E00E94D712482F4A5FC90160E170E00B
:100F90000E94D712282F8E2F8F5B6F2F0E94720016
:100FA000BCCF1F920F920FB60F920BB60F92112467
:100FB000FF920F931F932F933F934F935F936F93E2
:100FC0007F938F939F93AF93BF93CF93DF93EF93D1
:100FD000FF9320916F0127FD02C010928801F090CD
:100FE0008A013F2D323009F49EC0333010F18F2D2D
:100FF000833009F4AFC0843009F468C0F394F092F0
:101000008A01FF91EF91DF91CF91BF91AF919F91B5
:101010008F917F916F915F914F913F912F911F9190
:101020000F91FF900F900BBE0F900FBE0F901F906F
:101030001895FF2011F58FEF8BBB1ABA80E788BB9C
:10104000C0E0D0E001E010E08C2F0E941B04882358
:1010500061F0C8010C2E02C0880F991F0A94E2F7B4
:1010600020916F01282720936F012196C830D10568
:1010700059F788B38F7588BBC1CF313009F0BECF27
:101080008091A1019091A2018138910509F4C9C113
:101090008238910508F0C0C0009709F022C127FDF1
:1010A00082C1207A20936F01822F90E00090460148
:1010B00002C0959587950A94E2F780FFB9C08FE743
:1010C00090E09093A2018093A10198CF8091BA0102
:1010D0009091BB0186FF93C02091740130917901FA
:1010E000231709F4BAC130917E01231709F086CF86
:1010F0003091750120917F01321709F07FCF309137
:10110000760120918001321709F078CF2091880173
:1011100024FD74CF80629093BB018093BA0120615B
:10112000209388016BCF909189019B3009F430C1E5
:10113000809176018C3309F420C1809175018C3344
:1011400009F413C180917401883109F40BC142E0A4
:10115000F42E54CF2091BA013091BB0127FD03C07A
:1011600080E18093BE018091A1019091A20181381C
:10117000910509F427C18238910508F05EC00097F7
:1011800009F077C080E0609171010E94660580934C
:101190007001813009F4B2C1823009F4FCC1809140
:1011A000850150918401E0917401209147013091B3
:1011B00048018C3340F05F5F509384016CE30E94E0
:1011C000B712909385015C3308F05DC140918301B3
:1011D000483138F0842F68E10E94B712492F90936C
:1011E0008301E41709F45BC184E690E0821B930B52
:1011F0009093870080938600F0908A01FFCE209123
:10120000880124FDFBCE8F7D9093BB018093BA01B2
:10121000206120938801F2CE8438910509F43FCFF4
:101220008838910509F43BCF8238910509F437CF0E
:101230001092A2011092A101E1CE8438910509F427
:1012400055C08838910509F4F1C08238910509F03C
:10125000D5CE4091880147FDD1CE80E190E0822734
:1012600093279093BB018093BA0140684093880113
:10127000C5CE8F37910509F0C1CE4091880145FD5B
:101280000CC080E290E0822793279093BB0180936B
:10129000BA0140624F7E40938801309174013093CF
:1012A0007E012091750120937F0180917601865FF8
:1012B000809380018C3340F06CE30E94B7129093CE
:1012C00080012F5F20937F012C3308F497CE822F6B
:1012D0006CE30E94B71290937F013F5F30937E01D1
:1012E0008DCE8F37910509F0A3CFD9CE81E06091E3
:1012F00071010E94660580937001813009F4F8C085
:10130000823009F466C180E0609171010E94660537
:1013100080937001813009F415C1823009F42BC12A
:1013200080917A0190917901983110F010927901B1
:101330008C3338F010927A01809179018F5F80931D
:1013400079012091880126FD57CF8091BA019091B3
:10135000BB0180649093BB018093BA012064209309
:1013600088014ACF10927401F2CE109275018091DB
:1013700074018F5F80937401E7CE809175018F5F58
:10138000809375019F5F9093890110927601D7CE6B
:1013900080917601843109F0CDCE85E1809376018C
:1013A00010928901CACE20FD67C021FD9AC022FD9E
:1013B000DBC023FF23CE88E890E09093A2018093C6
:1013C000A1011CCE81E0609171010E9466058093AD
:1013D0007001813009F4C2C0823009F4F4C080E0A9
:1013E000609171010E94660580937001813009F45B
:1013F000AFC0823009F4C7C080917501909174012B
:10140000983110F0109274018C3308F4F5CE1092DC
:101410007501809174018F5F80937401F0908A014F
:10142000EDCD27FF3ECE20FFC0CFC7CF4091880132
:1014300046FDE4CD80E490E0822793279093BB01A2
:101440008093BA0140644093880186FDD7CD8F7D9B
:101450009093BB018093BA01D1CD40917501309139
:101460007A01431709F03FCE4091760130917B011C
:10147000431709F038CE4ACE81E890E09093A2015C
:101480008093A101BBCD409183014F5F40938301C5
:10149000852F6CE30E94B7129093840199CE9091AE
:1014A000750180918401981709F09ECE9091760184
:1014B00080918501981709F097CE4091880143FDEE
:1014C00093CE8091BA019091BB01877F9093BB012D
:1014D0008093BA018BE08093BE01486040938801FD
:1014E00083CE82E890E09093A2018093A10186CD03
:1014F000809179018F5F8093790105CF2091470119
:10150000309148012436310530F4265F3F4F309347
:101510004801209347018091BA019091BB018860F6
:101520009093BB018093BA01E0917401E093830131
:101530005091750150938401809176018D5F809365
:10154000850137CE80917A018F5F80937A01EACE50
:10155000809175018F5F8093750150CF80917401E8
:101560008F5F809374013BCF84E890E09093A20159
:101570008093A10143CD80917A01882381F181502C
:1015800080937A01CFCE80917501882351F18150EB
:101590008093750133CF8091BA019091BB0188602F
:1015A0009093BB018093BA0120914701309148018B
:1015B0002115310509F4B8CF2A5030403093480145
:1015C00020934701B1CF80917401815080937401C1
:1015D00006CF8091790181508093790194CE80E08B
:1015E000A1CE80E00BCFEF92FF920F931F93CF938A
:1015F000DF93809161008E7F809361001092620082
:1016000080E687B98FEE86B987B7816087BF83B7D9
:10161000856083BFA29A87B7806187BF8DE08EBD4A
:101620008FEF9FEF9BBD8ABDBF9A87B7806487BF4E
:1016300089E785BD1FEF13BD139A82EC80938B0061
:1016400089E180938A0084E690E090938100809302
:1016500080008AE590E0909387008093860087B3AE
:10166000876087BB8DB180658DB9709A0E94A61086
:101670000E94900E87E690E00E94AF100E94E10F5A
:101680008091BA019091BB0191609093BB018093CE
:10169000BA018BE08093BE011092A2011092A101C9
:1016A0000E94B0127894169A13B9129A1A9A1E9A36
:1016B0008A9A0E94A3120E9480108823E1F70E9458
:1016C00084120E9480108823E1F780E197E220E9EC
:1016D00031E0F9013197F1F70197D9F70E94FF1036
:1016E0000E94FF108091BA019091BB011FEF63E04F
:1016F000E62E05E057E0F52EC1E0D0E083FF07C0FD
:101700008091A1019091A201009709F4A4C00E94C8
:1017100084041ABB1BBB80916E01823009F48FC018
:10172000E82FF0E02091BA013091BB01E454FE4F64
:10173000E081F0E0EE5CFE4F90819BBB48B3982FB8
:101740009295907F4078942B98BB8F5F602F0E947A
:10175000B71290936E0187B3816F87BB26FF3DC0A0
:101760008091C1016F2D0E94B712AE0102C0440FDB
:10177000551F9A95E2F7CA0140916F014078482BB6
:101780004FB9779BFECF929A92981E981E9A779B9C
:10179000FECF8FB180937101C90120FD42C086FD4B
:1017A00024C090FFABCF80917201882309F45DC003
:1017B000E0917301F0E0EF54FE4F80810E94400EF3
:1017C00080917301873009F46DC08F5F809373013E
:1017D0008091BA019091BB0191CF80916F01807887
:1017E0009091A101892B8FB9CCCF84609093BB01DC
:1017F0008093BA01E0917301F0E0E75BFE4F8081D6
:101800000E94400E809173018D30F9F610927301A1
:1018100081E060E00E94E20C8091BA019091BB01EE
:101820006DCF0E94B1050E9453068091BA0190913C
:10183000BB018E7F9093BB018093BA01B0CF209102
:10184000BA013091BB0127FD0DC0E0926E01E3E0CB
:10185000F0E083E06BCF80914701909148010E94B6
:101860003C0457CFE2E0F0E061CFE0917301F0E09B
:10187000ED55FE4F80810E94400E809173018730AC
:1018800009F0A3CF1092730182E060E00E94E20CA5
:10189000809172018F5F809372018091BA01909163
:1018A000BB012CCF1092730181E060E00E94E20C3A
:1018B000809172018150809372018091BA01909160
:1018C000BB019E7F9093BB018093BA0117CFE2E6E4
:1018D000F0E08081886080838081877F80830895A5
:1018E0001FB8779BFECF81E08FB9779BFECF8091A9
:1018F000620088608093620080916200877F80939D
:10190000620080E991E00197F1F780E49FE101979F
:10191000F1F708951FB8779BFECF80E88FB9779BCA
:10192000FECF8091620088608093620080916200A7
:10193000877F8093620080E991E00197F1F7089535
:101940001FB8779BFECF80EC8FB9779BFECF80913D
:10195000620088608093620080916200877F80933C
:10196000620080E991E00197F1F708951FB8779B35
:10197000FECF8FE08FB9779BFECF809162008860A9
:101980008093620080916200877F8093620080E98B
:1019900091E00197F1F708951FB8779BFECF8CE097
:1019A0008FB9779BFECF8091620088608093620040
:1019B00080916200877F8093620080E991E00197C7
:1019C000F1F70895603120F4813019F08230B9F0D8
:1019D000089560581FB8779BFECF6FB9779BFECFF5
:1019E0008091620088608093620080916200877FAE
:1019F0008093620080E991E00197F1F708956054C7
:101A0000E9CF80E190E061E050E220E931E06FB998
:101A1000779BFECF5FB9779BFECF40916200486015
:101A20004093620040916200477F40936200F90159
:101A30003197F1F7019759F70895843608F45BC0A0
:101A400090E09F5F84568436E0F7992309F453C0F1
:101A500021E02FB9779BFECF905D9FB9779BFECF9A
:101A60009091620098609093620090916200977FDD
:101A700090936200E0E9F1E03197F1F721E08A30DC
:101A8000B0F190E09F5F8A508A30E0F7992379F1B6
:101A900021E02FB9779BFECF905D9FB9779BFECF5A
:101AA0009091620098609093620090916200977F9D
:101AB00090936200E0E9F1E03197F1F78823E9F0D3
:101AC000805D91E09FB9779BFECF8FB9779BFECF6A
:101AD0008091620088608093620080916200877FBD
:101AE0008093620080E991E00197F1F70895213039
:101AF00029F790E0CDCF20E0C2CF80E3E2CF27E20C
:101B00008031920708F4B4C020E02F5F80519742E3
:101B100037E280319307C8F7222309F4A9C031E0E6
:101B20003FB9779BFECF205D2FB9779BFECF2091E9
:101B3000620028602093620020916200277F20933A
:101B40006200E0E9F1E03197F1F731E043E0883EEF
:101B5000940708F489C020E02F5F885E934043E03B
:101B6000883E9407C8F7222309F47EC031E03FB9CC
:101B7000779BFECF205D2FB9779BFECF209162002F
:101B800028602093620020916200277F20936200EA
:101B9000E0E9F1E03197F1F731E08436910508F49E
:101BA0005FC020E02F5F8456904084369105D0F7C7
:101BB000222309F455C031E03FB9779BFECF205D69
:101BC0002FB9779BFECF209162002860209362009E
:101BD00020916200277F20936200E0E9F1E03197D5
:101BE000F1F731E08A309105B8F120E02F5F0A97D4
:101BF0008A309105D8F7222379F131E03FB9779BFC
:101C0000FECF205D2FB9779BFECF20916200286028
:101C10002093620020916200277F20936200E0E918
:101C2000F1E03197F1F7009749F1805D91E09FB9BC
:101C3000779BFECF8FB9779BFECF80916200886043
:101C40008093620080916200877F8093620080E9C8
:101C500091E00197F1F70895313029F720E0CDCFD9
:101C6000313051F030E0BECF313021F030E095CF4F
:101C700030E06CCF20E07ACF20E09DCF80E3D6CF5C
:101C800091E09FB9779BFECF8FB9779BFECF809174
:101C9000620088608093620080916200877F8093F9
:101CA000620080E991E00197F1F7089520E030E0CB
:101CB00060E071E040E951E07FB9779BFECF280FEB
:101CC000391FF90120812FB9779BFECF2091620047
:101CD00028602093620020916200277F2093620099
:101CE000FA013197F1F76F5F262F30E0FC01019088
:101CF0000020E9F7E81BF90B3297E217F307E0F64B
:101D00000895E1E6F0E080818860808388B388BB35
:101D100087B3876087BB80E58DB981E08EB9089570
:101D20008091610088608093610080E69AEE01975F
:101D3000F1F71FB8779BFECF88E38FB9779BFECF73
:101D40008091620088608093620080916200877F4A
:101D50008093620080E991E00197F1F780E29EE4D0
:101D60000197F1F71FB8779BFECF88E08FB9779B7B
:101D7000FECF809162008860809362008091620053
:101D8000877F8093620080E991E00197F1F780E41A
:101D90009FE10197F1F71FB8779BFECF86E08FB9DF
:101DA000779BFECF80916200886080936200809173
:101DB0006200877F8093620080E991E00197F1F7EC
:101DC0001FB8779BFECF80E48FB9779BFECF8091C1
:101DD000620088608093620080916200877F8093B8
:101DE000620080E991E00197F1F781E08FB9779B7C
:101DF000FECF8EE08FB9779BFECF80916200886026
:101E00008093620080916200877F8093620080E906
:101E100091E00197F1F781E08FB9779BFECF8BE1DD
:101E20008FB9779BFECF80916200886080936200BB
:101E300080916200877F8093620080E991E0019742
:101E4000F1F781E08FB9779BFECF81E18FB9779B66
:101E5000FECF809162008860809362008091620072
:101E6000877F8093620080E991E00197F1F781E03C
:101E70008FB9779BFECF81E18FB9779BFECF8091A1
:101E8000620088608093620080916200877F809307
:101E9000620080E991E00197F1F781E08FB9779BCB
:101EA000FECF81E18FB9779BFECF80916200886081
:101EB0008093620080916200877F8093620080E956
:101EC00091E00197F1F781E08FB9779BFECF81E137
:101ED0008FB9779BFECF809162008860809362000B
:101EE00080916200877F8093620080E991E0019792
:101EF000F1F781E08FB9779BFECF81E18FB9779BB6
:101F0000FECF8091620088608093620080916200C1
:101F1000877F8093620080E991E00197F1F781E08B
:101F20008FB9779BFECF8FE18FB9779BFECF8091E2
:101F3000620088608093620080916200877F809356
:101F4000620080E991E00197F1F71FB8779BFECF1F
:101F500081E08FB9779BFECF80916200886080938B
:101F6000620080916200877F8093620080E991E047
:101F70000197F1F780E29EE40197F1F71FB8779B94
:101F8000FECF8CE08FB9779BFECF80916200886096
:101F90008093620080916200877F8093620080E975
:101FA00091E00197F1F7089584E080939D0180E628
:101FB00080939E0180E96DE971E042E00E94841007
:101FC000089510929D0180E96DE971E041E00E9461
:101FD0008410089508951F920F920FB60F920BB6BA
:101FE0000F9211242F933F938F939F93EF93FF931F
:101FF000809171008832E1F18932C8F0803409F4AF
:102000004DC0813478F1803509F460C08835B1F471
:1020100080919701E091D301F091D401E80FF11D77
:1020200080917300808384E9809374000EC08031B6
:1020300009F442C08831E1F08830F1F180917100FB
:102040008093D20184E080937400FF91EF919F917F
:102050008F913F912F910F900BBE0F900FBE0F905D
:102060001F901895883351F785EA80937400EDCF5F
:10207000809197019091D6018917A8F6E091D3013C
:10208000F091D401E80FF11D9081909373008F5F60
:102090008093970185E880937400D7CF20919701B2
:1020A0008091D60130E090E001972817390724F598
:1020B00085EC80937400C9CF8091D5018093730023
:1020C0001092970185E880937400BFCF209197010B
:1020D000E091D301F091D401E20FF11D80917300E2
:1020E00080832F5F209397018091D60130E090E0AC
:1020F000019728173907E4F285E880937400A5CF8B
:1021000080917400817008959091740090FDFCCFCF
:102110008E7F8093D5017093D4016093D301409357
:10212000D60185EA8093740008959091740090FD23
:10213000FCCF81608093D5017093D4016093D3016B
:102140004093D60185EA8093740008958FEF8093C1
:102150007300109271008CE080937000089590934A
:10216000900089B988E18AB986E080939500089546
:102170005D9BFECF8CB908958BB1807808955F9BED
:10218000FECF8CB10895FC018081882339F031960F
:102190005D9BFECF8CB981918823D1F708951F9262
:1021A0000F920FB60F9211248F9381E08093AC01B0
:1021B00088B7806888BF8F910F900FBE0F901F90D7
:1021C000189584E18093D70182E267ED71E041E0E8
:1021D0000E9484100E9480108823E1F780EB94E035
:1021E0000197F1F782E26DEF71E041E00E949510F6
:1021F0000E9480108823E1F78091FD01089580E21C
:102200008093D7011092D801809167019091680165
:102210009093D9018093DA011092DB011092AC0106
:1022200082E267ED71E045E00E948410089580E449
:102230008093D7011092D8018091F9019091FA0111
:102240009093D9018093DA011092DB011092DC01A6
:102250001092AC0182E267ED71E046E00E948410CA
:102260008091AC018823E1F3089580E48093D70145
:102270001092D8018091FB019091FC019093D901BB
:102280008093DA011092DB0181E08093DC0182E22D
:1022900067ED71E046E00E94841080E293E020E95F
:1022A00031E0F9013197F1F70197D9F7089580915D
:1022B0009B0190919C018130910559F181309105EC
:1022C000F8F08230910541F46091FB017091FC01BE
:1022D0008FEA91E00E94B11588E991E06091E801F0
:1022E0000E94A41581E18093D70182E267ED71E03D
:1022F00041E00E94841088ED94E00197F1F7089581
:10230000609167017091680189E991E00E94B115BF
:10231000E3CF6091F9017091FA018FE991E00E9499
:10232000B115DACF83E28093D70181E08093D801A1
:1023300082E267ED71E042E00E9484100E9480100A
:102340008823E1F780EB94E00197F1F782E260EEF9
:1023500071E048E00E9495100E9480108823E1F708
:10236000089582E28093D70181E08093D80182E2D0
:1023700067ED71E042E00E9484100E948010882383
:10238000E1F780EB94E00197F1F782E260EE71E013
:1023900048E00E9495100E9480108823E1F708957C
:1023A00082E48093D70181E08093D80182E267EDD7
:1023B00071E042E00E9484100E9480108823E1F7BF
:1023C00080EB94E00197F1F782E260EE71E048E083
:1023D0000E949510089583E48093D70181E0809353
:1023E000D80182E267ED71E042E00E9484100E9411
:1023F00080108823E1F780EB94E00197F1F782E207
:1024000060EE71E048E00E949510089522E120936B
:10241000D7011092D8019093D9018093DA0170937B
:10242000DB016093DC0182E267ED71E046E00E942F
:10243000841080E49CE90197F1F708958FEA91E018
:102440000E949E159093FC018093FB0188E991E026
:102450000E9496158093E80181E08093D70181E581
:102460008093D80185E08093D90182E267ED71E025
:1024700043E00E94841080EB94E020E931E0F90110
:102480003197F1F70197D9F782E093E360E070E0CC
:102490000E94061282E091E361E071E00E94061260
:1024A00081E090E061E070E00E94061208958FE9FB
:1024B00091E00E949E159093FA018093F90188E9BA
:1024C00091E00E9496158093E80181E08093D70106
:1024D00081E58093D80185E08093D90182E267EDA0
:1024E00071E043E00E94841080EB94E020E931E049
:1024F000F9013197F1F70197D9F781E090E061E0B8
:1025000070E00E940612089581E08093D70180E573
:102510008093D80185E08093D90182E267ED71E074
:1025200043E00E94841080EB94E020E931E0F9015F
:102530003197F1F70197D9F781E090E061E070E021
:102540000E94061208951F98179A1A9A80E293E043
:102550000197F1F71A9880EA8A95F1F7179808958C
:1025600089B7806889BF8AB7806C8ABF0895991B34
:1025700079E004C0991F961708F0961B881F7A957A
:10258000C9F780950895AA1BBB1B51E107C0AA1F7C
:10259000BB1FA617B70710F0A61BB70B881F991F04
:1025A0005A95A9F780959095BC01CD01089597FBA8
:1025B000092E07260AD077FD04D0E5DF06D00020DB
:1025C0001AF4709561957F4F0895F6F7909581956F
:1025D0009F4F0895AF92BF92CF92DF92EF92FF92FA
:1025E0000F931F93CF93DF93EC01688179818A81E8
:1025F0009B81611571058105910521F464E279EDF6
:102600008BE597E02DE133EF41E050E00E94851625
:1026100079018A0127EA31E440E050E00E94661621
:102620005B016C01C801B7012CEE34EF4FEF5FEF97
:102630000E9466166A0D7B1D8C1D9D1D97FF04C0B0
:102640006150704080409048688379838A839B837F
:102650007F77CB01DF91CF911F910F91FF90EF908A
:10266000DF90CF90BF90AF9008950E94EA12089536
:1026700089E691E00E94EA120895A0E0B0E080931C
:10268000690190936A01A0936B01B0936C01089566
:102690000F931F93DF93CF93CDB7DEB72E970FB66F
:1026A000F894DEBF0FBECDBF0D891E898F89988D2E
:1026B00026E02C831A83098397FF02C080E090E80C
:1026C00001979E838D839E01255E3F4FCE0101962B
:1026D000698D7A8DA9010E9486134D815E8157FD17
:1026E0000AC02F813885421753070CF49A01020F54
:1026F000131FF80110822E960FB6F894DEBF0FBE9E
:10270000CDBFCF91DF911F910F9108952F923F92EE
:102710004F925F926F927F928F929F92AF92BF92F1
:10272000CF92DF92EF92FF920F931F93DF93CF939D
:10273000CDB7DEB72C970FB6F894DEBF0FBECDBF76
:102740006C011B018A01FC0117821682838181FFC3
:10275000D1C12E010894411C511CF6019381F10155
:1027600093FD859193FF81911F01882309F4BEC1D8
:10277000853239F493FD859193FF81911F01853254
:1027800029F490E0B6010E94CC15E7CFEE24FF2497
:1027900020E02032B0F48B3269F08C3228F48032A1
:1027A00051F0833271F40BC08D3239F0803349F42B
:1027B00021602CC02260246029C0286027C02061CD
:1027C00025C027FD2CC0382F30533A3098F426FF0F
:1027D00008C08E2D880FE82EEE0CEE0CE80EE30EEE
:1027E00015C08F2D880FF82EFF0CFF0CF80EF30E7E
:1027F00020620CC08E3221F426FD78C1206406C010
:102800008C3611F4206802C0883649F4F10193FD3A
:10281000859193FF81911F01882309F0BACF982FEA
:102820009554933018F09052933028F40C5F1F4F5A
:10283000FFE3F9830DC0833631F0833771F08335C0
:1028400009F060C022C0F801808189830E5F1F4FAC
:10285000420171E0A72EB12C16C062E0662E712CE9
:10286000600E711EF8018080918026FF03C06E2DDE
:1028700070E002C06FEF7FEFC4012C870E94C1158A
:102880005C0183012C852F7717C052E0652E712CD7
:10289000600E711EF8018080918026FF03C06E2DAE
:1028A00070E002C06FEF7FEFC4012C870E94B61565
:1028B0005C012C852068830123FD20C008C080E2D4
:1028C00090E0B6012C870E94CC15FA942C858F2DB0
:1028D00090E0A816B90698F311C0F40127FD859180
:1028E00027FF81914F0190E0B6012C870E94CC1503
:1028F0002C85F110FA940894A108B108A114B10430
:1029000061F7F1C0843611F0893649F527FF08C018
:10291000F80160817181828193810C5F1F4F09C032
:10292000F80160817181882777FD8095982F0E5F6F
:102930001F4F4FE6B42EB22297FF09C090958095A5
:10294000709561957F4F8F4F9F4FF0E8BF2AA2018E
:102950002AE030E00E94F815782E741845C08537BB
:1029600031F43FEEB32EB2222AE030E025C099EFD9
:10297000B92EB2228F36C1F0803720F4883509F0A5
:10298000B5C00DC0803721F0883709F0AFC002C054
:1029900020E1B22AB4FE0BC084E0B82A08C0B4FE1D
:1029A00009C0E6E0BE2A06C028E030E005C020E10C
:1029B00030E002C020E132E0B7FE08C0F8016081DB
:1029C0007181828193810C5F1F4F07C0F801608184
:1029D000718180E090E00E5F1F4FA2010E94F81508
:1029E000782E7418FFE7BF22B6FE0BC02EEFB2227E
:1029F0007E1438F4B4FE07C0B2FC05C08FEEB822D6
:102A000002C0A72C01C0AE2C8B2D90E0B4FE0DC0EF
:102A1000FE01E70DF11D2081203319F4E9EEBE22FD
:102A200009C0A394B2FE06C004C0867890700097D7
:102A300009F0A3948B2C9924B3FC14C0B0FE0FC0F2
:102A4000AF1428F4E72CEF0CEA18AF2C08C0E72CE1
:102A500006C080E290E0B6010E94CC15A394AF14AA
:102A6000C0F304C0AF1410F4FA1801C0FF2484FEB0
:102A70000FC080E390E0B6010E94CC1582FE1FC01B
:102A800081FE03C088E590E010C088E790E00DC0AB
:102A9000C40186789070009791F081FC02C080E2BA
:102AA00001C08BE2B7FC8DE290E0B6010E94CC152C
:102AB00006C080E390E0B6010E94CC15EA947E1433
:102AC000C0F37A94F201E70DF11D808190E0B60128
:102AD0000E94CC157720A9F706C080E290E0B601ED
:102AE0000E94CC15FA94FF20C1F737CEF60126815B
:102AF000378102C02FEF3FEFC9012C960FB6F89433
:102B0000DEBF0FBECDBFCF91DF911F910F91FF9020
:102B1000EF90DF90CF90BF90AF909F908F907F907D
:102B20006F905F904F903F902F900895E199FECF66
:102B30009FBB8EBBE09A99278DB30895A8E1B0E0C2
:102B400042E050E00C945816262FE199FECF9FBB2F
:102B50008EBB2DBB0FB6F894E29AE19A0FBE019698
:102B600008950E94A415272F0C94A515FC0105902B
:102B7000615070400110D8F7809590958E0F9F1F7F
:102B80000895FC016150704001900110D8F78095C4
:102B900090958E0F9F1F08950F931F93CF93DF93F0
:102BA0008C01EB018B8181FF1BC082FF0DC02E8148
:102BB0003F818C819D812817390764F4E881F98170
:102BC0000193F983E88306C0E885F985802F09958C
:102BD000009731F48E819F8101969F838E8302C07E
:102BE0000FEF1FEFC801DF91CF911F910F91089553
:102BF000FA01AA27283051F1203181F1E8946F932E
:102C00006E7F6E5F7F4F8F4F9F4FAF4FB1E03ED0D3
:102C1000B4E03CD0670F781F891F9A1FA11D680F71
:102C2000791F8A1F911DA11D6A0F711D811D911DA4
:102C3000A11D20D009F468943F912AE0269F112419
:102C40003019305D3193DEF6CF010895462F47707D
:102C5000405D4193B3E00FD0C9F7F6CF462F4F70D8
:102C6000405D4A3318F0495D31FD4052419302D036
:102C7000A9F7EACFB4E0A6959795879577956795DC
:102C8000BA95C9F700976105710508959B01AC01DC
:102C90000A2E06945795479537952795BA95C9F703
:102CA000620F731F841F951FA01D0895DC01CB01C7
:102CB000FC01E199FECF06C0FFBBEEBBE09A319666
:102CC0000DB20D9241505040B8F70895629FD00167
:102CD000739FF001829FE00DF11D649FE00DF11DD7
:102CE000929FF00D839FF00D749FF00D659FF00D86
:102CF0009927729FB00DE11DF91F639FB00DE11D73
:102D0000F91FBD01CF011124089597FB092E052657
:102D10000ED057FD04D014D00AD0001C38F45095C2
:102D20004095309521953F4F4F4F5F4F0895F6F7EF
:102D300090958095709561957F4F8F4F9F4F089527
:102D4000A1E21A2EAA1BBB1BFD010DC0AA1FBB1FAF
:102D5000EE1FFF1FA217B307E407F50720F0A21B21
:102D6000B30BE40BF50B661F771F881F991F1A948E
:102D700069F760957095809590959B01AC01BD01B8
:082D8000CF010895F894FFCF84
:102D88002D25642E252D3264202563002025642EF0
:102D9800252D3264202563002D2532642E252D3201
:102DA8006420256300202532642E252D32642025D9
:102DB8006300C0F9A4B0999282F88098FFFC40792A
:102DC8000000000000010532004265617220776151
:102DD800732068657265210001020002000001018C
:0E2DE80000000200020100A62201000000000F
:00000001FF
